{
  "contractName": "Coinflip",
  "abi": [
    {
      "anonymous": false,
      "inputs": [
        {
          "indexed": false,
          "internalType": "uint256",
          "name": "randomNumber",
          "type": "uint256"
        }
      ],
      "name": "GeneratedRandomNumber",
      "type": "event"
    },
    {
      "anonymous": false,
      "inputs": [
        {
          "indexed": false,
          "internalType": "string",
          "name": "description",
          "type": "string"
        }
      ],
      "name": "LogNewProvableQuery",
      "type": "event"
    },
    {
      "anonymous": false,
      "inputs": [
        {
          "indexed": true,
          "internalType": "address",
          "name": "player",
          "type": "address"
        },
        {
          "indexed": false,
          "internalType": "bool",
          "name": "betResult",
          "type": "bool"
        },
        {
          "indexed": false,
          "internalType": "uint256",
          "name": "valueBack",
          "type": "uint256"
        }
      ],
      "name": "Result",
      "type": "event"
    },
    {
      "anonymous": false,
      "inputs": [
        {
          "indexed": false,
          "internalType": "address",
          "name": "owner",
          "type": "address"
        },
        {
          "indexed": false,
          "internalType": "uint256",
          "name": "valueWithdrawn",
          "type": "uint256"
        }
      ],
      "name": "Withdraw",
      "type": "event"
    },
    {
      "constant": true,
      "inputs": [],
      "name": "latestNumber",
      "outputs": [
        {
          "internalType": "uint256",
          "name": "",
          "type": "uint256"
        }
      ],
      "payable": false,
      "stateMutability": "view",
      "type": "function"
    },
    {
      "constant": true,
      "inputs": [],
      "name": "owner",
      "outputs": [
        {
          "internalType": "address",
          "name": "",
          "type": "address"
        }
      ],
      "payable": false,
      "stateMutability": "view",
      "type": "function"
    },
    {
      "constant": true,
      "inputs": [],
      "name": "getBalance",
      "outputs": [
        {
          "internalType": "uint256",
          "name": "",
          "type": "uint256"
        }
      ],
      "payable": false,
      "stateMutability": "view",
      "type": "function"
    },
    {
      "constant": false,
      "inputs": [],
      "name": "fundContract",
      "outputs": [],
      "payable": true,
      "stateMutability": "payable",
      "type": "function"
    },
    {
      "constant": false,
      "inputs": [],
      "name": "withdrawAll",
      "outputs": [],
      "payable": false,
      "stateMutability": "nonpayable",
      "type": "function"
    },
    {
      "constant": false,
      "inputs": [
        {
          "internalType": "uint256",
          "name": "coinSelection",
          "type": "uint256"
        }
      ],
      "name": "startGame",
      "outputs": [],
      "payable": true,
      "stateMutability": "payable",
      "type": "function"
    },
    {
      "constant": false,
      "inputs": [],
      "name": "getRandomNumber",
      "outputs": [
        {
          "internalType": "bytes32",
          "name": "",
          "type": "bytes32"
        }
      ],
      "payable": true,
      "stateMutability": "payable",
      "type": "function"
    },
    {
      "constant": false,
      "inputs": [
        {
          "internalType": "bytes32",
          "name": "_myid",
          "type": "bytes32"
        },
        {
          "internalType": "string",
          "name": "_result",
          "type": "string"
        }
      ],
      "name": "__callback",
      "outputs": [],
      "payable": false,
      "stateMutability": "nonpayable",
      "type": "function"
    },
    {
      "constant": false,
      "inputs": [
        {
          "internalType": "bytes32",
          "name": "_queryId",
          "type": "bytes32"
        },
        {
          "internalType": "string",
          "name": "_result",
          "type": "string"
        },
        {
          "internalType": "bytes",
          "name": "_proof",
          "type": "bytes"
        }
      ],
      "name": "__callback",
      "outputs": [],
      "payable": false,
      "stateMutability": "nonpayable",
      "type": "function"
    }
  ],
  "bytecode": "0x6080604052336000806101000a81548173ffffffffffffffffffffffffffffffffffffffff021916908373ffffffffffffffffffffffffffffffffffffffff160217905550612bf6806100536000396000f3fe6080604052600436106100865760003560e01c80638da5cb5b116100595780638da5cb5b14610308578063bd097e211461035f578063dbdff2c114610369578063dc34b0aa14610387578063e5ed1d59146103b257610086565b806312065fe01461008b57806327dc297e146100b657806338bbfa5014610188578063853828b6146102f1575b600080fd5b34801561009757600080fd5b506100a06103e0565b6040518082815260200191505060405180910390f35b3480156100c257600080fd5b50610186600480360360408110156100d957600080fd5b81019080803590602001909291908035906020019064010000000081111561010057600080fd5b82018360208201111561011257600080fd5b8035906020019184600183028401116401000000008311171561013457600080fd5b91908080601f016020809104026020016040519081016040528093929190818152602001838380828437600081840152601f19601f8201169050808301925050505050505091929192905050506103ff565b005b34801561019457600080fd5b506102ef600480360360608110156101ab57600080fd5b8101908080359060200190929190803590602001906401000000008111156101d257600080fd5b8201836020820111156101e457600080fd5b8035906020019184600183028401116401000000008311171561020657600080fd5b91908080601f016020809104026020016040519081016040528093929190818152602001838380828437600081840152601f19601f8201169050808301925050505050505091929192908035906020019064010000000081111561026957600080fd5b82018360208201111561027b57600080fd5b8035906020019184600183028401116401000000008311171561029d57600080fd5b91908080601f016020809104026020016040519081016040528093929190818152602001838380828437600081840152601f19601f820116905080830192505050505050509192919290505050610442565b005b3480156102fd57600080fd5b50610306610859565b005b34801561031457600080fd5b5061031d610983565b604051808273ffffffffffffffffffffffffffffffffffffffff1673ffffffffffffffffffffffffffffffffffffffff16815260200191505060405180910390f35b6103676109a8565b005b610371610a03565b6040518082815260200191505060405180910390f35b34801561039357600080fd5b5061039c610a76565b6040518082815260200191505060405180910390f35b6103de600480360360208110156103c857600080fd5b8101908080359060200190929190505050610a7c565b005b60003073ffffffffffffffffffffffffffffffffffffffff1631905090565b61043e828260006040519080825280601f01601f1916602001820160405280156104385781602001600182028038833980820191505090505b50610442565b5050565b600115156009600085815260200190815260200160002060030160009054906101000a900460ff161515146104df576040517f08c379a00000000000000000000000000000000000000000000000000000000081526004018080602001828103825260178152602001807f496e76616c69642063616c6c6261636b2073746174757300000000000000000081525060200191505060405180910390fd5b6104e7610b9e565b73ffffffffffffffffffffffffffffffffffffffff163373ffffffffffffffffffffffffffffffffffffffff1614610587576040517f08c379a000000000000000000000000000000000000000000000000000000000815260040180806020018281038252601c8152602001807f496e76616c6964206164647265737320666f722063616c6c6261636b0000000081525060200191505060405180910390fd5b6000806002846040516020018082805190602001908083835b602083106105c357805182526020820191506020810190506020830392506105a0565b6001836020036101000a0380198251168184511680821785525050505050509050019150506040516020818303038152906040528051906020012060001c8161060857fe5b0690508060096000878152602001908152602001600020600401819055507fd054642608b20770eee6964340fbf033dfd800f8f86a7f4aa60eb1eb3a015590816040518082815260200191505060405180910390a16009600086815260200190815260200160002060020154600960008781526020019081526020016000206004015414156107c057600260096000878152602001908152602001600020600101540291506009600086815260200190815260200160002060000160009054906101000a900473ffffffffffffffffffffffffffffffffffffffff1673ffffffffffffffffffffffffffffffffffffffff166108fc839081150290604051600060405180830381858888f19350505050158015610729573d6000803e3d6000fd5b506009600086815260200190815260200160002060000160009054906101000a900473ffffffffffffffffffffffffffffffffffffffff1673ffffffffffffffffffffffffffffffffffffffff167f4657d02194371648ea3899d7b7054fec17ce786998a24063bcb019108493316c60018460405180831515151581526020018281526020019250505060405180910390a2610852565b6009600086815260200190815260200160002060000160009054906101000a900473ffffffffffffffffffffffffffffffffffffffff1673ffffffffffffffffffffffffffffffffffffffff167f4657d02194371648ea3899d7b7054fec17ce786998a24063bcb019108493316c60008060405180831515151581526020018281526020019250505060405180910390a25b5050505050565b6000809054906101000a900473ffffffffffffffffffffffffffffffffffffffff1673ffffffffffffffffffffffffffffffffffffffff163373ffffffffffffffffffffffffffffffffffffffff16146108b257600080fd5b60003073ffffffffffffffffffffffffffffffffffffffff163190503373ffffffffffffffffffffffffffffffffffffffff166108fc829081150290604051600060405180830381858888f19350505050158015610914573d6000803e3d6000fd5b507f884edad9ce6fa2440d8a54cc123490eb96d2768479d49ff9c7366125a94243643382604051808373ffffffffffffffffffffffffffffffffffffffff1673ffffffffffffffffffffffffffffffffffffffff1681526020018281526020019250505060405180910390a150565b6000809054906101000a900473ffffffffffffffffffffffffffffffffffffffff1681565b6000809054906101000a900473ffffffffffffffffffffffffffffffffffffffff1673ffffffffffffffffffffffffffffffffffffffff163373ffffffffffffffffffffffffffffffffffffffff1614610a0157600080fd5b565b60008060009050600062030d4090506000610a2083600184610ebe565b90507fc4dc360d0a9c0677a3379ae0a3d81e887f761e65fdf3d7e00859d1bcd3c47389604051808060200182810382526035815260200180612b8d6035913960400191505060405180910390a180935050505090565b60085481565b600180341015610a8b57600080fd5b610a93612a5f565b600033826000019073ffffffffffffffffffffffffffffffffffffffff16908173ffffffffffffffffffffffffffffffffffffffff16815250503482602001818152505083826040018181525050610ae9610a03565b90506001826060019015159081151581525050816009600083815260200190815260200160002060008201518160000160006101000a81548173ffffffffffffffffffffffffffffffffffffffff021916908373ffffffffffffffffffffffffffffffffffffffff160217905550602082015181600101556040820151816002015560608201518160030160006101000a81548160ff0219169083151502179055506080820151816004015590505050505050565b60008073ffffffffffffffffffffffffffffffffffffffff16600260009054906101000a900473ffffffffffffffffffffffffffffffffffffffff1673ffffffffffffffffffffffffffffffffffffffff161480610c2657506000610c24600260009054906101000a900473ffffffffffffffffffffffffffffffffffffffff16611459565b145b15610c3757610c356000611464565b505b600260009054906101000a900473ffffffffffffffffffffffffffffffffffffffff1673ffffffffffffffffffffffffffffffffffffffff166338cc48316040518163ffffffff1660e01b8152600401602060405180830381600087803b158015610ca157600080fd5b505af1158015610cb5573d6000803e3d6000fd5b505050506040513d6020811015610ccb57600080fd5b810190808051906020019092919050505073ffffffffffffffffffffffffffffffffffffffff16600160009054906101000a900473ffffffffffffffffffffffffffffffffffffffff1673ffffffffffffffffffffffffffffffffffffffff1614610e1657600260009054906101000a900473ffffffffffffffffffffffffffffffffffffffff1673ffffffffffffffffffffffffffffffffffffffff166338cc48316040518163ffffffff1660e01b8152600401602060405180830381600087803b158015610d9a57600080fd5b505af1158015610dae573d6000803e3d6000fd5b505050506040513d6020811015610dc457600080fd5b8101908080519060200190929190505050600160006101000a81548173ffffffffffffffffffffffffffffffffffffffff021916908373ffffffffffffffffffffffffffffffffffffffff1602179055505b600160009054906101000a900473ffffffffffffffffffffffffffffffffffffffff1673ffffffffffffffffffffffffffffffffffffffff1663c281d19e6040518163ffffffff1660e01b815260040160206040518083038186803b158015610e7e57600080fd5b505afa158015610e92573d6000803e3d6000fd5b505050506040513d6020811015610ea857600080fd5b8101908080519060200190929190505050905090565b60008083118015610ed0575060208311155b610ed957600080fd5b600a84029350606060016040519080825280601f01601f191660200182016040528015610f155781602001600182028038833980820191505090505b5090508360f81b81600081518110610f2957fe5b60200101907effffffffffffffffffffffffffffffffffffffffffffffffffffffffffffff1916908160001a905350606060206040519080825280601f01601f191660200182016040528015610f8e5781602001600182028038833980820191505090505b509050606060206040519080825280601f01601f191660200182016040528015610fc75781602001600182028038833980820191505090505b5090506000610fd4611475565b905060208352424118600143034018602084015260208252806020830152606060206040519080825280601f01601f1916602001820160405280156110285781602001600182028038833980820191505090505b509050886020820152606060086040519080825280601f01601f1916602001820160405280156110675781602001600182028038833980820191505090505b50905061107a8260186008846000611795565b50611083612aa6565b604051806080016040528087815260200188815260200186815260200184815250905060006110e86040518060400160405280600681526020017f72616e646f6d0000000000000000000000000000000000000000000000000000815250838c6117f4565b9050606060086040519080825280601f01601f1916602001820160405280156111205781602001600182028038833980820191505090505b50905060208401517f0100000000000000000000000000000000000000000000000000000000000000810460278301537e01000000000000000000000000000000000000000000000000000000000000810460268301537d010000000000000000000000000000000000000000000000000000000000810460258301537c0100000000000000000000000000000000000000000000000000000000810460248301537b01000000000000000000000000000000000000000000000000000000810460238301537a01000000000000000000000000000000000000000000000000000081046022830153790100000000000000000000000000000000000000000000000000810460218301537801000000000000000000000000000000000000000000000000810460208301535061144682828560016004811061125f57fe5b602002015160028760006004811061127357fe5b60200201516040518082805190602001908083835b602083106112ab5780518252602082019150602081019050602083039250611288565b6001836020036101000a038019825116818451168082178552505050505050905001915050602060405180830381855afa1580156112ed573d6000803e3d6000fd5b5050506040513d602081101561130257600080fd5b81019080805190602001909291905050508760026004811061132057fe5b60200201516040516020018085805190602001908083835b6020831061135b5780518252602082019150602081019050602083039250611338565b6001836020036101000a03801982511681845116808217855250505050505090500184805190602001908083835b602083106113ac5780518252602082019150602081019050602083039250611389565b6001836020036101000a03801982511681845116808217855250505050505090500183815260200182805190602001908083835b6020831061140357805182526020820191506020810190506020830392506113e0565b6001836020036101000a03801982511681845116808217855250505050505090500194505050505060405160208183030381529060405280519060200120611b63565b8199505050505050505050509392505050565b6000813b9050919050565b600061146e611b7f565b9050919050565b60008073ffffffffffffffffffffffffffffffffffffffff16600260009054906101000a900473ffffffffffffffffffffffffffffffffffffffff1673ffffffffffffffffffffffffffffffffffffffff1614806114fd575060006114fb600260009054906101000a900473ffffffffffffffffffffffffffffffffffffffff16611459565b145b1561150e5761150c6000611464565b505b600260009054906101000a900473ffffffffffffffffffffffffffffffffffffffff1673ffffffffffffffffffffffffffffffffffffffff166338cc48316040518163ffffffff1660e01b8152600401602060405180830381600087803b15801561157857600080fd5b505af115801561158c573d6000803e3d6000fd5b505050506040513d60208110156115a257600080fd5b810190808051906020019092919050505073ffffffffffffffffffffffffffffffffffffffff16600160009054906101000a900473ffffffffffffffffffffffffffffffffffffffff1673ffffffffffffffffffffffffffffffffffffffff16146116ed57600260009054906101000a900473ffffffffffffffffffffffffffffffffffffffff1673ffffffffffffffffffffffffffffffffffffffff166338cc48316040518163ffffffff1660e01b8152600401602060405180830381600087803b15801561167157600080fd5b505af1158015611685573d6000803e3d6000fd5b505050506040513d602081101561169b57600080fd5b8101908080519060200190929190505050600160006101000a81548173ffffffffffffffffffffffffffffffffffffffff021916908373ffffffffffffffffffffffffffffffffffffffff1602179055505b600160009054906101000a900473ffffffffffffffffffffffffffffffffffffffff1673ffffffffffffffffffffffffffffffffffffffff1663abaa5f3e6040518163ffffffff1660e01b815260040160206040518083038186803b15801561175557600080fd5b505afa158015611769573d6000803e3d6000fd5b505050506040513d602081101561177f57600080fd5b8101908080519060200190929190505050905090565b60606000828501905080845110156117ac57600080fd5b600086602001905060008460200190505b8688602001018210156117e557818901518082880152506020820191506020810190506117bd565b85935050505095945050505050565b60008073ffffffffffffffffffffffffffffffffffffffff16600260009054906101000a900473ffffffffffffffffffffffffffffffffffffffff1673ffffffffffffffffffffffffffffffffffffffff16148061187c5750600061187a600260009054906101000a900473ffffffffffffffffffffffffffffffffffffffff16611459565b145b1561188d5761188b6000611464565b505b600260009054906101000a900473ffffffffffffffffffffffffffffffffffffffff1673ffffffffffffffffffffffffffffffffffffffff166338cc48316040518163ffffffff1660e01b8152600401602060405180830381600087803b1580156118f757600080fd5b505af115801561190b573d6000803e3d6000fd5b505050506040513d602081101561192157600080fd5b810190808051906020019092919050505073ffffffffffffffffffffffffffffffffffffffff16600160009054906101000a900473ffffffffffffffffffffffffffffffffffffffff1673ffffffffffffffffffffffffffffffffffffffff1614611a6c57600260009054906101000a900473ffffffffffffffffffffffffffffffffffffffff1673ffffffffffffffffffffffffffffffffffffffff166338cc48316040518163ffffffff1660e01b8152600401602060405180830381600087803b1580156119f057600080fd5b505af1158015611a04573d6000803e3d6000fd5b505050506040513d6020811015611a1a57600080fd5b8101908080519060200190929190505050600160006101000a81548173ffffffffffffffffffffffffffffffffffffffff021916908373ffffffffffffffffffffffffffffffffffffffff1602179055505b60606004604051908082528060200260200182016040528015611aa357816020015b6060815260200190600190039081611a8e5790505b50905083600060048110611ab357fe5b602002015181600081518110611ac557fe5b602002602001018190525083600160048110611add57fe5b602002015181600181518110611aef57fe5b602002602001018190525083600260048110611b0757fe5b602002015181600281518110611b1957fe5b602002602001018190525083600360048110611b3157fe5b602002015181600381518110611b4357fe5b6020026020010181905250611b598582856120d6565b9150509392505050565b8060046000848152602001908152602001600020819055505050565b600080611b9f731d3b2638a7cc9f2cb3d298a3da7a90b67e5506ed611459565b1115611c4157731d3b2638a7cc9f2cb3d298a3da7a90b67e5506ed600260006101000a81548173ffffffffffffffffffffffffffffffffffffffff021916908373ffffffffffffffffffffffffffffffffffffffff160217905550611c386040518060400160405280600b81526020017f6574685f6d61696e6e657400000000000000000000000000000000000000000081525061263c565b600190506120d3565b6000611c6073c03a2615d5efaf5f49f60b7bb6583eaec212fdf1611459565b1115611d025773c03a2615d5efaf5f49f60b7bb6583eaec212fdf1600260006101000a81548173ffffffffffffffffffffffffffffffffffffffff021916908373ffffffffffffffffffffffffffffffffffffffff160217905550611cf96040518060400160405280600c81526020017f6574685f726f707374656e33000000000000000000000000000000000000000081525061263c565b600190506120d3565b6000611d2173b7a07bcf2ba2f2703b24c0691b5278999c59ac7e611459565b1115611dc35773b7a07bcf2ba2f2703b24c0691b5278999c59ac7e600260006101000a81548173ffffffffffffffffffffffffffffffffffffffff021916908373ffffffffffffffffffffffffffffffffffffffff160217905550611dba6040518060400160405280600981526020017f6574685f6b6f76616e000000000000000000000000000000000000000000000081525061263c565b600190506120d3565b6000611de273146500cfd35b22e4a392fe0adc06de1a1368ed48611459565b1115611e845773146500cfd35b22e4a392fe0adc06de1a1368ed48600260006101000a81548173ffffffffffffffffffffffffffffffffffffffff021916908373ffffffffffffffffffffffffffffffffffffffff160217905550611e7b6040518060400160405280600b81526020017f6574685f72696e6b65627900000000000000000000000000000000000000000081525061263c565b600190506120d3565b6000611ea373a2998efd205fb9d4b4963afb70778d6354ad3a41611459565b1115611f455773a2998efd205fb9d4b4963afb70778d6354ad3a41600260006101000a81548173ffffffffffffffffffffffffffffffffffffffff021916908373ffffffffffffffffffffffffffffffffffffffff160217905550611f3c6040518060400160405280600a81526020017f6574685f676f65726c690000000000000000000000000000000000000000000081525061263c565b600190506120d3565b6000611f64736f485c8bf6fc43ea212e93bbf8ce046c7f1cb475611459565b1115611fc857736f485c8bf6fc43ea212e93bbf8ce046c7f1cb475600260006101000a81548173ffffffffffffffffffffffffffffffffffffffff021916908373ffffffffffffffffffffffffffffffffffffffff160217905550600190506120d3565b6000611fe77320e12a1f859b3feae5fb2a0a32c18f5a65555bbf611459565b111561204b577320e12a1f859b3feae5fb2a0a32c18f5a65555bbf600260006101000a81548173ffffffffffffffffffffffffffffffffffffffff021916908373ffffffffffffffffffffffffffffffffffffffff160217905550600190506120d3565b600061206a7351efaf4c8b3c9afbd5ab9f4bbc82784ab6ef8faa611459565b11156120ce577351efaf4c8b3c9afbd5ab9f4bbc82784ab6ef8faa600260006101000a81548173ffffffffffffffffffffffffffffffffffffffff021916908373ffffffffffffffffffffffffffffffffffffffff160217905550600190506120d3565b600090505b90565b60008073ffffffffffffffffffffffffffffffffffffffff16600260009054906101000a900473ffffffffffffffffffffffffffffffffffffffff1673ffffffffffffffffffffffffffffffffffffffff16148061215e5750600061215c600260009054906101000a900473ffffffffffffffffffffffffffffffffffffffff16611459565b145b1561216f5761216d6000611464565b505b600260009054906101000a900473ffffffffffffffffffffffffffffffffffffffff1673ffffffffffffffffffffffffffffffffffffffff166338cc48316040518163ffffffff1660e01b8152600401602060405180830381600087803b1580156121d957600080fd5b505af11580156121ed573d6000803e3d6000fd5b505050506040513d602081101561220357600080fd5b810190808051906020019092919050505073ffffffffffffffffffffffffffffffffffffffff16600160009054906101000a900473ffffffffffffffffffffffffffffffffffffffff1673ffffffffffffffffffffffffffffffffffffffff161461234e57600260009054906101000a900473ffffffffffffffffffffffffffffffffffffffff1673ffffffffffffffffffffffffffffffffffffffff166338cc48316040518163ffffffff1660e01b8152600401602060405180830381600087803b1580156122d257600080fd5b505af11580156122e6573d6000803e3d6000fd5b505050506040513d60208110156122fc57600080fd5b8101908080519060200190929190505050600160006101000a81548173ffffffffffffffffffffffffffffffffffffffff021916908373ffffffffffffffffffffffffffffffffffffffff1602179055505b6000600160009054906101000a900473ffffffffffffffffffffffffffffffffffffffff1673ffffffffffffffffffffffffffffffffffffffff16632ef3accc86856040518363ffffffff1660e01b81526004018080602001838152602001828103825284818151815260200191508051906020019080838360005b838110156123e55780820151818401526020810190506123ca565b50505050905090810190601f1680156124125780820380516001836020036101000a031916815260200191505b509350505050602060405180830381600087803b15801561243257600080fd5b505af1158015612446573d6000803e3d6000fd5b505050506040513d602081101561245c57600080fd5b81019080805190602001909291905050509050823a02670de0b6b3a76400000181111561248f576000801b915050612635565b606061249a85612656565b9050600160009054906101000a900473ffffffffffffffffffffffffffffffffffffffff1673ffffffffffffffffffffffffffffffffffffffff1663c55c1cb68360008985896040518663ffffffff1660e01b8152600401808581526020018060200180602001848152602001838103835286818151815260200191508051906020019080838360005b8381101561253f578082015181840152602081019050612524565b50505050905090810190601f16801561256c5780820380516001836020036101000a031916815260200191505b50838103825285818151815260200191508051906020019080838360005b838110156125a557808201518184015260208101905061258a565b50505050905090810190601f1680156125d25780820380516001836020036101000a031916815260200191505b5096505050505050506020604051808303818588803b1580156125f457600080fd5b505af1158015612608573d6000803e3d6000fd5b50505050506040513d602081101561261f57600080fd5b8101908080519060200190929190505050925050505b9392505050565b8060039080519060200190612652929190612acd565b5050565b60606126606126d6565b612668612b4d565b612674816104006126e2565b61267d8161272c565b60008090505b83518110156126bf576126b284828151811061269b57fe5b60200260200101518361273a90919063ffffffff16565b8080600101915050612683565b506126c98161275f565b8060000151915050919050565b60405180590338823950565b60008190506000602082816126f357fe5b061461270c576020818161270357fe5b06602003810190505b808360200181815250506040518084526000815281810160405250505050565b61273781600461276d565b50565b612747826002835161278e565b61275a81836128ce90919063ffffffff16565b505050565b61276a81600761276d565b50565b61278a601f60058360ff16901b178361297990919063ffffffff16565b5050565b601781116127ba576127b58160058460ff16901b60ff16178461297990919063ffffffff16565b6128c9565b60ff81116127fb576127df601860058460ff16901b178461297990919063ffffffff16565b6127f5816001856129b99092919063ffffffff16565b506128c8565b61ffff811161283d57612821601960058460ff16901b178461297990919063ffffffff16565b612837816002856129b99092919063ffffffff16565b506128c7565b63ffffffff811161288157612865601a60058460ff16901b178461297990919063ffffffff16565b61287b816004856129b99092919063ffffffff16565b506128c6565b67ffffffffffffffff81116128c5576128ad601b60058460ff16901b178461297990919063ffffffff16565b6128c3816008856129b99092919063ffffffff16565b505b5b5b5b5b505050565b6128d6612b4d565b82602001518360000151518351011115612906576129058360026128ff86602001518651612a20565b02612a3c565b5b60008060008451905085518051602081830101945086518101825260208701935050505b6020811061294d578151835260208301925060208201915060208103905061292a565b60006001826020036101000a039050801983511681855116818117865250508694505050505092915050565b8160200151600183600001515101111561299f5761299e826002846020015102612a3c565b5b815180516020818301018381536001820183525050505050565b6129c1612b4d565b8360200151846000015151830111156129ef576129ee8460026129e8876020015186612a20565b02612a3c565b5b60006001836101000a0390508451805184818301018684198251161781528582018352505050849150509392505050565b600081831115612a3257829050612a36565b8190505b92915050565b606082600001519050612a4f83836126e2565b612a5983826128ce565b50505050565b6040518060a00160405280600073ffffffffffffffffffffffffffffffffffffffff1681526020016000815260200160008152602001600015158152602001600081525090565b60405180608001604052806004905b6060815260200190600190039081612ab55790505090565b828054600181600116156101000203166002900490600052602060002090601f016020900481019282601f10612b0e57805160ff1916838001178555612b3c565b82800160010185558215612b3c579182015b82811115612b3b578251825591602001919060010190612b20565b5b509050612b499190612b67565b5090565b604051806040016040528060608152602001600081525090565b612b8991905b80821115612b85576000816000905550600101612b6d565b5090565b9056fe50726f7661626c65207175657279207761732073656e742c207374616e64696e6720627920666f722074686520616e737765722e2ea265627a7a72315820947fa7a0896ede11eeb072fe47bea5f2f35abdf79fcc094dc3f3d74751e3073664736f6c634300050c0032",
  "source": "pragma solidity 0.5.12;\r\nimport \"./provableAPI.sol\";\r\nimport \"./Ownable.sol\";\r\n\r\ncontract Coinflip is Ownable, usingProvable {\r\n\r\n  address owner;\r\n  uint private senderBetValue;\r\n  uint256 public latestNumber;\r\n  uint256 constant NUM_RANDOM_BYTES_REQUESTED = 1;\r\n\r\n\r\n  modifier costs(uint cost){\r\n      require(msg.value >= cost);\r\n      _;\r\n  }\r\n\r\n\r\n  struct Player {\r\n    address payable playerAddress;\r\n    uint betValue;\r\n    uint coinGuess;\r\n    bool statusOfCallback;\r\n    uint256 result;\r\n  }\r\n\r\n\r\n  mapping(bytes32=> Player) playerIds;\r\n\r\n  event Result (address indexed player, bool betResult, uint valueBack);\r\n  event Withdraw (address owner, uint valueWithdrawn);\r\n  event LogNewProvableQuery(string description);\r\n  event GeneratedRandomNumber(uint256 randomNumber);\r\n\r\n  function getBalance() public view returns(uint){\r\n    return address(this).balance;\r\n  }\r\n\r\n  function fundContract() public payable onlyOwner {\r\n  }\r\n\r\n  function withdrawAll() public onlyOwner  {\r\n    uint toTransfer = address(this).balance;\r\n    msg.sender.transfer(toTransfer);\r\n    emit Withdraw(msg.sender, toTransfer);\r\n   }\r\n\r\n  function startGame(uint coinSelection) public payable costs(1 wei) {\r\n    //receive ETH into the contract as a bet and make a call to usingProvable oracle for random number and store queryID into a mapping + all the valuesinto Player structure\r\n    Player memory newPlayer;\r\n    bytes32 playerQueryId;\r\n    newPlayer.playerAddress = msg.sender;\r\n    newPlayer.betValue = msg.value;\r\n    newPlayer.coinGuess = coinSelection;\r\n\r\n    playerQueryId = getRandomNumber();\r\n    newPlayer.statusOfCallback = true;\r\n    playerIds[playerQueryId] = newPlayer;\r\n  }\r\n\r\n  function getRandomNumber() public payable returns (bytes32) {\r\n    uint256 QUERY_EXECUTION_DELAY = 0;\r\n    uint256 GAS_FOR_CALLBACK = 200000;\r\n\r\n    bytes32 realQueryId =  provable_newRandomDSQuery(QUERY_EXECUTION_DELAY, NUM_RANDOM_BYTES_REQUESTED, GAS_FOR_CALLBACK );\r\n\r\n    emit LogNewProvableQuery(\"Provable query was sent, standing by for the answer..\");\r\n    return realQueryId;\r\n  }\r\n\r\n  function __callback(bytes32 _queryId, string memory _result, bytes memory _proof) public {\r\n      require(playerIds[_queryId].statusOfCallback == true,\"Invalid callback status\");\r\n      require(msg.sender == provable_cbAddress(), \"Invalid address for callback\");\r\n      uint toTransfer;\r\n\r\n      uint256 randomNumber = uint256(keccak256(abi.encodePacked(_result))) % 2;\r\n      playerIds[_queryId].result = randomNumber;\r\n      emit GeneratedRandomNumber(randomNumber);\r\n\r\n      if (playerIds[_queryId].result == playerIds[_queryId].coinGuess){\r\n        toTransfer = playerIds[_queryId].betValue * 2;\r\n        playerIds[_queryId].playerAddress.transfer(toTransfer);\r\n        emit Result(playerIds[_queryId].playerAddress, true, toTransfer);\r\n      }else{\r\n        emit Result(playerIds[_queryId].playerAddress, false, 0);\r\n      }\r\n\r\n  }\r\n}\r\n",
  "sourcePath": "C:/Finance/Investments/Crypto/Coding/dapps/CoinFlip/contracts/Coinflip.sol",
  "compiler": {
    "name": "solc",
    "version": "0.5.12+commit.7709ece9.Emscripten.clang"
  },
  "schemaVersion": "3.0.16",
  "updatedAt": "2020-07-18T14:46:20.610Z",
  "devdoc": {
    "methods": {
      "__callback(bytes32,string)": {
        "details": "The following `__callback` functions are just placeholders ideally     meant to be defined in child contract when proofs are used.     The function bodies simply silence compiler warnings."
      }
    }
  },
  "userdoc": {
    "methods": {}
  }
}