{
  "contractName": "Coinflip",
  "abi": [
    {
      "inputs": [],
      "payable": true,
      "stateMutability": "payable",
      "type": "constructor"
    },
    {
      "anonymous": false,
      "inputs": [
        {
          "indexed": false,
          "internalType": "address",
          "name": "player",
          "type": "address"
        },
        {
          "indexed": false,
          "internalType": "bool",
          "name": "betResult",
          "type": "bool"
        }
      ],
      "name": "Result",
      "type": "event"
    },
    {
      "constant": true,
      "inputs": [],
      "name": "contractBalance",
      "outputs": [
        {
          "internalType": "uint256",
          "name": "",
          "type": "uint256"
        }
      ],
      "payable": false,
      "stateMutability": "view",
      "type": "function"
    },
    {
      "constant": true,
      "inputs": [],
      "name": "random",
      "outputs": [
        {
          "internalType": "uint256",
          "name": "",
          "type": "uint256"
        }
      ],
      "payable": false,
      "stateMutability": "view",
      "type": "function"
    },
    {
      "constant": false,
      "inputs": [],
      "name": "result",
      "outputs": [
        {
          "internalType": "bool",
          "name": "betResult",
          "type": "bool"
        }
      ],
      "payable": false,
      "stateMutability": "nonpayable",
      "type": "function"
    },
    {
      "constant": false,
      "inputs": [
        {
          "internalType": "uint256",
          "name": "coinSelection",
          "type": "uint256"
        }
      ],
      "name": "placeBet",
      "outputs": [],
      "payable": true,
      "stateMutability": "payable",
      "type": "function"
    }
  ],
  "bytecode": "0x6080604052336000806101000a81548173ffffffffffffffffffffffffffffffffffffffff021916908373ffffffffffffffffffffffffffffffffffffffff160217905550346001819055506104318061005a6000396000f3fe60806040526004361061003f5760003560e01c806310fe7c48146100445780635ec01e4d14610072578063653721471461009d5780638b7afe2e146100cc575b600080fd5b6100706004803603602081101561005a57600080fd5b81019080803590602001909291905050506100f7565b005b34801561007e57600080fd5b50610087610141565b6040518082815260200191505060405180910390f35b3480156100a957600080fd5b506100b2610153565b604051808215151515815260200191505060405180910390f35b3480156100d857600080fd5b506100e161036b565b6040518082815260200191505060405180910390f35b60018034101561010657600080fd5b61010e6103db565b348160000181815250508281602001818152505061012a610141565b81604001818152505061013c81610371565b505050565b60006002428161014d57fe5b06905090565b6000803390506000600360008373ffffffffffffffffffffffffffffffffffffffff1673ffffffffffffffffffffffffffffffffffffffff168152602001908152602001600020600001549050600360008373ffffffffffffffffffffffffffffffffffffffff1673ffffffffffffffffffffffffffffffffffffffff16815260200190815260200160002060010154600360008473ffffffffffffffffffffffffffffffffffffffff1673ffffffffffffffffffffffffffffffffffffffff1681526020019081526020016000206002015414156102f1573373ffffffffffffffffffffffffffffffffffffffff166108fc600283029081150290604051600060405180830381858888f19350505050158015610275573d6000803e3d6000fd5b507f25d60922efcd01128a7bb2ee6b940950d6f9ef701e69fc59d337dd2b8ff59501336001604051808373ffffffffffffffffffffffffffffffffffffffff1673ffffffffffffffffffffffffffffffffffffffff168152602001821515151581526020019250505060405180910390a1600192505050610368565b7f25d60922efcd01128a7bb2ee6b940950d6f9ef701e69fc59d337dd2b8ff59501336000604051808373ffffffffffffffffffffffffffffffffffffffff1673ffffffffffffffffffffffffffffffffffffffff168152602001821515151581526020019250505060405180910390a16000925050505b90565b60015481565b600033905081600360008373ffffffffffffffffffffffffffffffffffffffff1673ffffffffffffffffffffffffffffffffffffffff1681526020019081526020016000206000820151816000015560208201518160010155604082015181600201559050505050565b6040518060600160405280600081526020016000815260200160008152509056fea265627a7a72315820dd0b8280225f4d5794c93a5225435bc50cfea055e8f51b214e0eaa275a26e42864736f6c634300050c0032",
  "source": "pragma solidity 0.5.12;\r\n\r\ncontract Coinflip{\r\n\r\n  address owner;\r\n  uint public contractBalance;\r\n  uint private senderBetValue;\r\n\r\n\r\n  constructor() public payable {\r\n    owner = msg.sender;\r\n    contractBalance = msg.value;\r\n  }\r\n\r\n  modifier costs(uint cost){\r\n      require(msg.value >= cost);\r\n      _;\r\n  }\r\n\r\n  struct Gambler {\r\n    uint betValue;\r\n    uint coinGuess;\r\n    uint result;\r\n  }\r\n\r\n  mapping (address => Gambler) private bets;\r\n\r\n  event Result (address player, bool betResult);\r\n\r\n\r\n    function random() public view returns (uint){\r\n      //function to generate 1 or 0 to indicate win\r\n        return now % 2;\r\n    }\r\n\r\n    function result() public returns (bool betResult){\r\n      //function to generate 1 or 0 to indicate win\r\n      address gambler = msg.sender;\r\n      uint toTransfer = bets[gambler].betValue;\r\n      if (bets[gambler].result == bets[gambler].coinGuess){\r\n        msg.sender.transfer(toTransfer*2);\r\n        emit Result(msg.sender, true);\r\n        return true;\r\n      }else{\r\n        /*emit Result(\"You lost, try next time!\", msg.sender);*/\r\n        emit Result(msg.sender, false);\r\n        return false;\r\n      }\r\n    }\r\n\r\n    function placeBet(uint coinSelection) public payable costs(1 wei){\r\n      //receive ETH into the contract as a bet and make a decision if someone won\r\n      /*balance += msg.value;*/\r\n      Gambler memory newGambler;\r\n      newGambler.betValue = msg.value;\r\n      newGambler.coinGuess = coinSelection;\r\n      newGambler.result = random();\r\n      insertGambler(newGambler);\r\n\r\n    }\r\n\r\n\r\n    function insertGambler(Gambler memory newGambler) private {\r\n    address gambler = msg.sender;\r\n    bets[gambler] = newGambler;\r\n    }\r\n\r\n    /*function sendWinnings(uint betValue) public returns (uint) {\r\n      //send 2xETH back if user won\r\n      address winner = msg.sender;\r\n      uint toTransfer = bets[winner];\r\n      balance = balance - toTransfer;\r\n      msg.sender.transfer(toTransfer);\r\n      deleteBet(sender);\r\n      return toTransfer;\r\n    }\r\n\r\n    function deleteBet(address creator) private {\r\n        delete bets[creator];\r\n        assert(bets[creator] == 0);\r\n    }*/\r\n}\r\n",
  "sourcePath": "C:/Finance/Investments/Crypto/Coding/dapps/CoinFlip/contracts/Coinflip.sol",
  "compiler": {
    "name": "solc",
    "version": "0.5.12+commit.7709ece9.Emscripten.clang"
  },
  "schemaVersion": "3.0.16",
  "updatedAt": "2020-07-09T23:57:48.576Z",
  "devdoc": {
    "methods": {}
  },
  "userdoc": {
    "methods": {}
  }
}