{
  "contractName": "Coinflip",
  "abi": [
    {
      "inputs": [],
      "payable": true,
      "stateMutability": "payable",
      "type": "constructor"
    },
    {
      "anonymous": false,
      "inputs": [
        {
          "indexed": false,
          "internalType": "address",
          "name": "player",
          "type": "address"
        },
        {
          "indexed": false,
          "internalType": "bool",
          "name": "betResult",
          "type": "bool"
        },
        {
          "indexed": false,
          "internalType": "uint256",
          "name": "valueBack",
          "type": "uint256"
        }
      ],
      "name": "Result",
      "type": "event"
    },
    {
      "constant": true,
      "inputs": [],
      "name": "contractBalance",
      "outputs": [
        {
          "internalType": "uint256",
          "name": "",
          "type": "uint256"
        }
      ],
      "payable": false,
      "stateMutability": "view",
      "type": "function"
    },
    {
      "constant": true,
      "inputs": [],
      "name": "random",
      "outputs": [
        {
          "internalType": "uint256",
          "name": "",
          "type": "uint256"
        }
      ],
      "payable": false,
      "stateMutability": "view",
      "type": "function"
    },
    {
      "constant": false,
      "inputs": [
        {
          "internalType": "uint256",
          "name": "coinSelection",
          "type": "uint256"
        }
      ],
      "name": "placeBet",
      "outputs": [
        {
          "internalType": "bool",
          "name": "betResult",
          "type": "bool"
        }
      ],
      "payable": true,
      "stateMutability": "payable",
      "type": "function"
    }
  ],
  "bytecode": "0x6080604052336000806101000a81548173ffffffffffffffffffffffffffffffffffffffff021916908373ffffffffffffffffffffffffffffffffffffffff1602179055503460018190555061040d8061005a6000396000f3fe6080604052600436106100345760003560e01c806310fe7c48146100395780635ec01e4d1461007f5780638b7afe2e146100aa575b600080fd5b6100656004803603602081101561004f57600080fd5b81019080803590602001909291905050506100d5565b604051808215151515815260200191505060405180910390f35b34801561008b57600080fd5b5061009461039f565b6040518082815260200191505060405180910390f35b3480156100b657600080fd5b506100bf6103b1565b6040518082815260200191505060405180910390f35b60006001803410156100e657600080fd5b6100ee6103b7565b600080339050348360000181815250508583602001818152505061011061039f565b83604001818152505082600360008373ffffffffffffffffffffffffffffffffffffffff1673ffffffffffffffffffffffffffffffffffffffff168152602001908152602001600020600082015181600001556020820151816001015560408201518160020155905050600360008273ffffffffffffffffffffffffffffffffffffffff1673ffffffffffffffffffffffffffffffffffffffff16815260200190815260200160002060010154600360008373ffffffffffffffffffffffffffffffffffffffff1673ffffffffffffffffffffffffffffffffffffffff168152602001908152602001600020600201541415610319576002600360008373ffffffffffffffffffffffffffffffffffffffff1673ffffffffffffffffffffffffffffffffffffffff168152602001908152602001600020600001540291508073ffffffffffffffffffffffffffffffffffffffff166108fc839081150290604051600060405180830381858888f19350505050158015610294573d6000803e3d6000fd5b507f4657d02194371648ea3899d7b7054fec17ce786998a24063bcb019108493316c33600184604051808473ffffffffffffffffffffffffffffffffffffffff1673ffffffffffffffffffffffffffffffffffffffff16815260200183151515158152602001828152602001935050505060405180910390a160019450505050610399565b7f4657d02194371648ea3899d7b7054fec17ce786998a24063bcb019108493316c33600080604051808473ffffffffffffffffffffffffffffffffffffffff1673ffffffffffffffffffffffffffffffffffffffff16815260200183151515158152602001828152602001935050505060405180910390a1600094505050505b50919050565b6000600242816103ab57fe5b06905090565b60015481565b6040518060600160405280600081526020016000815260200160008152509056fea265627a7a723158206e50ad2b543f2a4c4ba9bef62beab5b1798246a44fc6ce5f72723eeb87f09e5f64736f6c634300050c0032",
  "source": "pragma solidity 0.5.12;\r\n\r\ncontract Coinflip{\r\n\r\n  address owner;\r\n  uint public contractBalance;\r\n  uint private senderBetValue;\r\n\r\n\r\n  constructor() public payable {\r\n    owner = msg.sender;\r\n    contractBalance = msg.value;\r\n  }\r\n\r\n  modifier costs(uint cost){\r\n      require(msg.value >= cost);\r\n      _;\r\n  }\r\n\r\n  struct Gambler {\r\n    uint betValue;\r\n    uint coinGuess;\r\n    uint result;\r\n  }\r\n\r\n  mapping (address => Gambler) private bets;\r\n\r\n  event Result (address player, bool betResult, uint valueBack);\r\n\r\n\r\n    function random() public view returns (uint){\r\n      //function to generate 1 or 0 to indicate win\r\n        return now % 2;\r\n    }\r\n\r\n\r\n\r\n    function placeBet(uint coinSelection) public payable costs(1 wei) returns(bool betResult){\r\n      //receive ETH into the contract as a bet and make a decision if someone won\r\n      /*balance += msg.value;*/\r\n      Gambler memory newGambler;\r\n      uint toTransfer;\r\n      address payable gambler = msg.sender;\r\n      newGambler.betValue = msg.value;\r\n      newGambler.coinGuess = coinSelection;\r\n      newGambler.result = random();\r\n      bets[gambler] = newGambler;\r\n\r\n      if (bets[gambler].result == bets[gambler].coinGuess){\r\n        toTransfer = bets[gambler].betValue * 2;\r\n        gambler.transfer(toTransfer);\r\n        emit Result(msg.sender, true, toTransfer);\r\n        return true;\r\n      }else{\r\n        /*emit Result(\"You lost, try next time!\", msg.sender);*/\r\n        emit Result(msg.sender, false, 0);\r\n        return false;\r\n      }\r\n\r\n    }\r\n\r\n\r\n    /*function result() public returns (bool betResult){\r\n      //function to generate 1 or 0 to indicate win\r\n      address gambler = msg.sender;\r\n      uint toTransfer = bets[gambler].betValue;\r\n      if (bets[gambler].result == bets[gambler].coinGuess){\r\n        msg.sender.transfer(toTransfer*2);\r\n        emit Result(msg.sender, true);\r\n        return true;\r\n      }else{\r\n        emit Result(\"You lost, try next time!\", msg.sender);\r\n        emit Result(msg.sender, false);\r\n        return false;\r\n      }\r\n    }*/\r\n\r\n    /*function insertGambler(Gambler memory newGambler, address ) private {\r\n    address gambler = msg.sender;\r\n    bets[gambler] = newGambler;\r\n    }\r\n\r\n    function sendWinnings(uint betValue) public returns (uint) {\r\n      //send 2xETH back if user won\r\n      address winner = msg.sender;\r\n      uint toTransfer = bets[winner];\r\n      balance = balance - toTransfer;\r\n      msg.sender.transfer(toTransfer);\r\n      deleteBet(sender);\r\n      return toTransfer;\r\n    }\r\n\r\n    function deleteBet(address creator) private {\r\n        delete bets[creator];\r\n        assert(bets[creator] == 0);\r\n    }*/\r\n}\r\n",
  "sourcePath": "C:/Finance/Investments/Crypto/Coding/dapps/CoinFlip/contracts/Coinflip.sol",
  "compiler": {
    "name": "solc",
    "version": "0.5.12+commit.7709ece9.Emscripten.clang"
  },
  "schemaVersion": "3.0.16",
  "updatedAt": "2020-07-10T10:12:23.977Z",
  "devdoc": {
    "methods": {}
  },
  "userdoc": {
    "methods": {}
  }
}